:100000000C946F010C948C010C948C010C948C0159
:100010000C948C010C948C010C948C010C948C012C
:100020000C948C010C948C010C94971B0C946B1CFD
:100030000C94C7160C948C010C948C010C948C01BC
:100040000C948C010C948C010C948C010C948C01FC
:100050000C948C010C944E170C948C010C948C0114
:100060000C948C010C948C010C948C010C948C01DC
:100070000C948C010C948C010C948C010C948C01CC
:100080000C948C010C948C010C948C010C948C01BC
:100090000C948C010C948C010C948C010C948C01AC
:1000A0000C948C010C948C010C948C010102E07A6C
:1000B0000103E000270000001E0000001F002000D8
:1000C0002100220023002400250026000400050052
:1000D000060007000800090000770B000000000080
:1000E000000000002A2B2800000000000000000093
:1000F0000000000000000029000000002C1E342039
:10010000212224342627252E362D3738271E1F205E
:100110002122232425263333362E37381F040506A3
:100120000708090A0B0C0D0E0F10111213141516E7
:100130001718191A1B1C1D2F3130232D35040506E5
:100140000708090A0B0C0D0E0F10111213141516C7
:100150001718191A1B1C1D2F3130354C00000000D8
:10016000000000000000000000000000000000008F
:10017000000000000000000000000000000000007F
:100180007E0F00D4FFFFFFC7000000782803440063
:1001900069007200650063007400500069006E0021
:1001A00073002000500072006F004D006900630072
:1001B00072006F00000016035A00610063006800BF
:1001C0002000570068006900740065000000040307
:1001D000090409023B00020100A0FA090400000121
:1001E00003010100092111010001224400070581DA
:1001F00003080001090401000103000000092111A6
:10020000010001227B00070582032000011201008A
:100210000200000008EDFE2023010001020001059C
:10022000010902A10185020901A10005091901299D
:10023000081500250195087501810205010930099D
:10024000311581257F9502750881060938158125AC
:100250007F950175088106050C0A38021581257FF6
:10026000950175088106C0C005010980A1018503BB
:1002700019012AB700150126B700950175108100F4
:10028000C0050C0901A101850419012AA00215016C
:1002900026A002950175108100C005010906A10183
:1002A000050719E029E71500250195087501810268
:1002B0009501750881010507190029FF150026FF22
:1002C0000095067508810005081901290515002506
:1002D00001950575019102950175039101C01124E5
:1002E0001FBECFEFDAE0DEBFCDBF11E0A0E0B1E08E
:1002F000E0E4FEE302C005900D92AA39B107D9F7F8
:1003000022E0AAE9B1E001C01D92AA36B207E1F7E6
:100310000E9482100C94DF1E0C9400009C01FB01D3
:100320008581882351F02115374741F460E08CEA3C
:1003300090E00E94511480E0089581E008958111B9
:1003400011C06A3078F4423068F4E62FF0E0EE0F26
:10035000FF1FE40FF11DEE0FFF1FEC54FF4F8591BF
:100360009491089581E090E008950E949F0108957E
:1003700081E008950E94B801089581E008950E94E7
:100380008E01089508950E94C2010895A6E0B0E08C
:10039000ECECF1E00C943B1E49835A839E83309130
:1003A000A10189819A8131111AC03E81332399F0CC
:1003B000222389F00E945507182F682F89819A817E
:1003C0000E94320769817A81812F0E94310E269620
:1003D000E3E00C94571E0E944307182FF3CF0E94AE
:1003E000550769817A81F1CFFC01262F4081518127
:1003F00062817381848195810E94C6010895CF93A3
:10040000DF93EC0161E00E94F401BE010E94BA0199
:10041000DF91CF910895CF93DF93EC0160E00E94CC
:10042000F401BE010E94C301DF91CF9108950895A8
:100430000E9407060E9417022FEF84E39CE02150E0
:1004400080409040E1F700C0000008950E9418022B
:100450000E94721708950E9418020E94831708953F
:100460000F931F93CF93DF938C0161E00E94F401FF
:10047000EC01B8010E94BF01811106C080E0DF914C
:10048000CF911F910F910895B801CE010E94471599
:100490008823A1F3B801CE010E941813882371F3B9
:1004A000B801CE010E94B914882341F3F801858177
:1004B000882361F0C330FCE7DF07E9F058F4C11589
:1004C000ECE7DE07A9F0C130DC47B9F0C8010E94B3
:1004D000BD01D5CFCB358CE7D807A9F0CC35ECE7FB
:1004E000DE0771F0CA35DC4789F70E948B0BEECF2F
:1004F0000E942602C3CF0E94930B0E942B02BECF04
:100500000E94810BE3CF0E948F0BE0CF0E94A416C4
:100510000E94AD0208950E94B1020E94A91608959A
:10052000089581E008950895CF93DF93D82F0E9416
:100530009102C82F882319F08D2F0E9493028C2FCF
:10054000DF91CF9108950895CF93C82F0E94900214
:100550008C2F0E949402CF91089580E00E94A40203
:1005600008950E9490150E94A4020895CF930E94BE
:100570009015C82F80919C018C1779F0C0939C0135
:100580000E94331760939D0170939E0180939F0199
:100590009093A0018C2F0E94A402CF910895ADE00A
:1005A000B0E0E5EDF2E00C943C1E488759876A877D
:1005B0007B878C879D8791110E94B90A1F8286E0F4
:1005C000FE013896DE01119601900D928A95E1F7B1
:1005D0008D8181110DC029813A814B815C816D81B2
:1005E0007E818F810E94EC092D96E2E00C94581ECA
:1005F000CE0101960E94FF018111EDCFF5CFFC01E4
:100600002481213021F4808191810E9487070895FF
:10061000662329F00E9419110E94EC1108950E948E
:100620007311FACFCF93C82F8823B9F08CEF8C0FBA
:10063000813AA8F46C2F80910001909101010E94F1
:100640001216882329F08C2F0E94790A0E94F20A40
:100650008C2F0E94710A0E94F20ACF91089580E2C5
:100660008C0F883048F4C77081E001C0880FCA95AC
:10067000EAF70E949C0AEFCFEBE5EC0FE33040F481
:10068000F0E0E75BFE4F808190E00E94B615E5CF79
:10069000E8E5EC0FEB3150F4F0E0EE0FFF1FED5EFC
:1006A000FE4F808191810E94DB15D7CF83E38C0FB1
:1006B000833198F661E08C2F0E940803CECF882307
:1006C00081F19CEF980F913A28F40E94790A0E94D8
:1006D000F20A089590E2980F983050F4877091E0F4
:1006E00001C0990F8A95EAF7892F0E94A20AEFCFDD
:1006F0009BE5980F933028F490E080E00E94B615B7
:10070000089598E5980F9B3128F490E080E00E94CE
:10071000DB15089593E3980F933118F460E00E947D
:10072000080308951F93CF93DF93182FEB010E94C6
:100730001203209739F4812F0E945F03DF91CF913C
:100740001F9108958FE99FE00197F1F700C0000025
:100750002197EFCF70E060E0893311F460E570E03D
:100760000E9492030895882321F00E949C0A0E940F
:10077000F20A0895882321F00E94A20A0E94F20A38
:100780000895B0E0A0E0E7ECF3E00C94351E6C01B6
:10079000D62FC72FFC011581068102950F700E948C
:1007A000920AE82E8823E9F0E12E1123D1F08C2F54
:1007B000807F803451F080E28D0F8830F8F0011195
:1007C00004C08C2F807E8032C9F08091440282FF69
:1007D00015C082E00E94550B0E94920A91E0E82E1B
:1007E000E926BC2EB2949FE0B922FBE0FB15B8F1DC
:1007F000EB2DF0E0EF51F14E0C94261EE12CF1CFE1
:100800000C2F0F70C07F11F00295007F112399F01B
:10081000002359F080E28D0F883010F0D11107C00D
:10082000802F0E949C0A0E94F20A8D2F5AC0802FAE
:100830000E94AC0AF8CF8D2F0E945F03002379F04D
:1008400080E28D0F883010F0D11104C0802F0E94FB
:10085000A20A03C0802F0E94B20A0E94F20AEB2D66
:10086000E850FF0B349720F40E9490150E94A402D8
:10087000EE2089F00E948E0A80FD0DC0F6011582DF
:100880000E94880A0E949006C6010E94CE050E941E
:10089000880A0E94A006CDB7DEB7E9E00C94511E8D
:1008A0002C2F2F70F22EC07FC03219F0F29480EFFF
:1008B000F822DD2341F0D130D1F1112309F444C0F5
:1008C0000023F1F0B2CF8091440282FD15C01123C4
:1008D00059F0FF2029F08F2D0E949C0A0E94F20AF5
:1008E00080E00E941203BBCF80E00E945F03FF20E4
:1008F00009F4B5CF8F2DABCF112369F0011104C0DE
:100900008F2D0E94B303ABCF013009F0A8CF8F2DFC
:100910000E94D00AA4CF0111A2CF8F2D0E94BA034A
:100920008F2D0E94DC0A8F2D0E94C00A98CF1123C0
:1009300021F0063008F093CFE3CF053008F08FCFD9
:100940008F2D0E94BA038BCF0023D1F3D93349F402
:100950003FEF87EE93E0315080409040E1F700C0D8
:1009600000008D2F0E945F037ACF8C2F869586958D
:10097000837069F0813009F072CF8D2F9C2F9370B6
:10098000111102C080E090E00E94DB1568CF8D2F2E
:100990009C2F9370111102C080E090E00E94B61568
:1009A0005ECF612F8D2F0E94080359CF8C2F83704B
:1009B000A1F5111154CF4D2F429546954770440F24
:1009C000440F2D2F2F7030E0042E02C0220F331F52
:1009D0000A94E2F790E080E0D4FF09C08FE090E055
:1009E00002C0880F991F4A95E2F780959095C695A9
:1009F000C695C370822B932BC23049F058F4C13096
:100A000019F00E9460062BCF0E94570628CF0E9443
:100A1000690625CF0E94540622CF8695112311F036
:100A20008C2F8170882309F41ACF4D2F429546955B
:100A30004770440F440F2D2F2F7030E0042E02C05A
:100A4000220F331F0A94E2F790E080E0D4FF09C040
:100A50008FE090E002C0880F991F4A95E2F78095D9
:100A60009095C695C695C370822B932BC23049F0E2
:100A700058F4C13019F00E94CB06F1CE0E94C20694
:100A8000EECE0E94D406EBCE0E947806E8CECF7060
:100A9000112329F08C2F0E9490068D2F32CF8D2F9D
:100AA0000E94BA038C2F0E94A006D9CED23F41F1FA
:100AB00060F4D03FB9F0D13F81F0112309F446C072
:100AC0000111B3CE8C2F8F711FC0D33F01F1D43FE2
:100AD000A1F78091440282FD24C08C2F8F711123D5
:100AE00011F312C0112341F0053008F0B8CE8C2F5D
:100AF0008F710E94B206B3CE063008F0B0CEF7CFA9
:100B00008C2F8F711111CFCF0E949006A8CE112388
:100B100029F08C2F8F710E948406A1CE0E947F063F
:100B20009ECE112349F0CF718C2F0E94900663E076
:100B30008C2F0E94370B93CE81E00E94550B023020
:100B400008F48DCE82E00E94550B89CE002359F027
:100B5000D93309F006CFEFEFF7EE23E0E150F04094
:100B60002040E1F7FCCE8C2F8F719DCF0F931F9308
:100B7000CF93DF93EC01688179818D810E94920788
:100B80008C010E94DD060E945306B801CE010E942E
:100B9000C103DF91CF911F910F910895CF93DF9300
:100BA000EC018C81882399F0CE010E9430028111E2
:100BB00011C00E94920A882351F08D81882339F058
:100BC0008091440282FF03C082E00E94550BDF91B6
:100BD000CF910895CE010E94B605CE010E940B026E
:100BE000F6CF90E080E00E94B61590E080E00E9491
:100BF000DB150E94B90A0E94F20A0E9408120E94A4
:100C0000EC1108950E94810A0E94F10508950E9446
:100C1000A90A0E940206089592959F70963091F05D
:100C200058F4925F9F70923058F4803F19F030F47E
:100C3000883E30F481E008959A5FF4CF843FD1F389
:100C400080E00895883EB0F3813FD1F7F3CFFC01F7
:100C50002481222339F0808191810E9487070E949C
:100C60000C06089580E00895A6E0B0E0EAE3F6E01F
:100C70000C943C1E2696E2E00C94581EA7E0B0E0CF
:100C8000E4E4F6E00C943C1E2796E2E00C94581E37
:100C900008950E94480608950E9449069093B10164
:100CA0008093B001089508950E944C060895209104
:100CB000B0013091B101822B932B0E944C06089514
:100CC0002091B0013091B101822393230E944C0600
:100CD00008952091B0013091B101822793270E949D
:100CE0004C0608950E94480608950E9472060895D1
:100CF0000E9475069093AF018093AE01089590E035
:100D000080E00E947806089521E030E0A90102C049
:100D1000440F551F8A95E2F7CA010E94780608958C
:100D200021E030E002C0220F331F8A95E2F7809164
:100D3000AE019091AF01822B932B0E94780608950B
:100D400021E030E002C0220F331F8A95E2F72095A0
:100D500030958091AE019091AF01822393230E9440
:100D60007806089521E030E002C0220F331F8A95F3
:100D7000E2F78091AE019091AF01822793270E9404
:100D8000780608952091AE013091AF01822B932B0C
:100D90000E94780608952091AE013091AF01822320
:100DA00093230E94780608952091AE013091AF01FF
:100DB000822793270E94780608950895262F27708A
:100DC00091E001C0990F2A95EAF723E0769567959F
:100DD0002A95E1F7660F771F660F771FFA01E60F76
:100DE000F71F50E040E0682F70E08191DF0111971C
:100DF0009B01042E02C0369527950A94E2F72170D4
:100E000021952827292328272C934F5F5F4F4430B3
:100E1000510559F70895A82FA77023E09695879557
:100E20002A95E1F7880F991F880F991FFB01E80F9A
:100E3000F91F50E040E080E0219130E00A2E02C02E
:100E4000369527950A94E2F721703327042E01C0C6
:100E5000220F0A94EAF7822B4F5F5F4F443051050F
:100E600059F70895262F9A3068F4823058F4692F84
:100E700070E0660F771F680F711D42EA51E0822F04
:100E80000E94DE0608959A3070F4823060F4292FB3
:100E900030E0220F331F62EA71E0820F932F911D21
:100EA0000E940B07089580E00895B0E0A0E0EBE514
:100EB000F7E00C94351E7C010091AE011091AF015A
:100EC0008091B0019091B101082B192BCFE0D0E0B7
:100ED000CC24C394D12CBC2EC6010C2E02C0880F8A
:100EE000991F0A94E2F780239123892B49F42197D3
:100EF00090F7B12C8B2DCDB7DEB7E9E00C94511EE5
:100F0000B7018C2F0E943D0E019789F3F3CFCF9349
:100F1000DF93EC010E945507BE010E943D0EDF9158
:100F2000CF9108951F93CF93DF93EB019091A1018F
:100F3000992339F0CB010E948707DF91CF911F9150
:100F40000895882369F0CB010E945507182F682F58
:100F5000CE010E943207BE01812F0E943D0EEDCFCF
:100F6000CB010E944307182FF6CF1F93CF93DF9337
:100F7000C091B20117E08091B3018C1304C0DF91DE
:100F8000CF911F910895D0E01C9FF0011D9FF00D9F
:100F90001124EC54FE4F20813181428153816481C0
:100FA000758186810E943E062196C770E4CF20910C
:100FB000EC013091ED014091EE015091EF01609113
:100FC000F0017091F1018091F2010E943E060895B6
:100FD000CF93DF938091F201807F09F04DC0809123
:100FE000F101882309F448C0E091B2015091B301A6
:100FF000C091ED01D091EC016091EE017091EF0193
:1010000047E05E17C9F18E2F90E0E49FF0011124B4
:10101000EC54FE4F2481222391F1489FF001499F17
:10102000F00D1124DF01AC54BE4F11962C91119795
:101030002C1325C02C912D1322C015962C91159799
:1010400021111DC012962D913C91261B370B283C77
:101050003105A8F48091F2018F7080618093F201D4
:10106000E654FE4F80818F70806180838CEE91E02A
:101070000E94CE050E94B507DF91CF910895FC0133
:101080003196E770BECF482F2091B2019091B30105
:1010900057E0291302C080E0089530E0529FF0012C
:1010A000539FF00D1124EC54FE4F8181681306C04C
:1010B0008081481303C085818111EECF2F5F3F4FA0
:1010C0002770E7CFA4E1B0E0E8E6F8E00C94321E28
:1010D0008C0186E0F801DE011F9601900D928A9541
:1010E000E1F7F8018481E5809CEEA92E91E0B92E0C
:1010F0009091F00191111FC08823D1F0EE20A9F04A
:10110000C8010E942706F82E882379F087E0F801AD
:10111000D50101900D928A95E1F7C5010E94FF0269
:101120000E94E8070E94D7075FC0C8010E94CE0551
:10113000FF24F39459C0C080D18082809380F090C6
:10114000F1012091EE013091EF01A401421B530BFC
:10115000FF2009F4F9C0483C510508F0A7C08823D6
:1011600009F442C09091ED018091F201282F207F77
:1011700009F05CC09D1116C09091EC01C91212C01B
:10118000E1104EC08F7080618093F2010E94D707FA
:101190008CEE91E00E94CE058091F201F8018683E9
:1011A000F12C22C0E1103CC06D2D8C2D0E94430813
:1011B0006D2D8C2D0E944308E82E8111F1CFCF8632
:1011C000D88A8F8598890E948707292F22952F70AA
:1011D000243078F49F702230A8F09923B9F0F801F8
:1011E0009681907F99F4FE2C8F2D6496ECE00C9400
:1011F0004E1E2A5F2F70223068F0C8010E94CE0573
:10120000EF2CF1CF992311F0882369F3805E8830A9
:1012100050F3F3CF803F38F3815F833070F7E3CF33
:101220008091F20181608093F201BACF9D1113C0C9
:101230009091EC01C9120FC0E1100DC08683C80166
:101240000E94CE0587E0F801ACEEB1E001900D926E
:101250008A95E1F767CFC8010E942706882309F421
:1012600064CFEE2009F461CF8091F201803288F0E2
:101270002091EC013091ED01398728879B868A8681
:101280009091F0019C871D868E87CE0108960E9462
:10129000CE0587E0F801ACEEB1E001900D928A95A1
:1012A000E1F70E94E8070E94D70742CF9091F20130
:1012B000292F207FA1F4682D9A8A898AA6017A892C
:1012C0009E2D0E9434068CEE91E00E94CE0587E0B0
:1012D000F50111928A95E9F70E94D70761CF88231B
:1012E00009F482CF8091ED018D1110C08091EC0145
:1012F000C8120CC0E1100AC09683C8010E94CE0536
:1013000087E0F50111928A95E9F76ECFC8010E9436
:101310002706882309F409CFEE2009F406CF80912F
:10132000F201803208F4B5CF2091EC013091ED014B
:101330003A8329839C828B829091F0019D831E8247
:101340008F83CE010196A3CF483C5105B8F5882381
:1013500009F4EECEFE2CEE2009F4E7CE8091ED01EB
:101360008D111EC08091EC01C8121AC08091F2014B
:1013700080FD0DC0982F907F51F08683903F09F437
:101380005ECF982F907F905F8F70892B57CF87E02B
:10139000F801ACEEB1E001900D928A95E1F724CF0F
:1013A000C8010E942706811174CF8091F2018160EB
:1013B0008093F201C8010E94CE0516CF682D9A8A4B
:1013C000898AA6017A899E2D0E94340687E0F5015C
:1013D00011928A95E9F7A6CEAEE0B0E0E2EFF9E02F
:1013E0000C943B1E288739874A875B876C877D87EB
:1013F0008E87CE0108960E9462088823B1F06C8522
:10140000662341F0288539854A855B857D858E85F3
:101410000E943E0617E08091B2019091B3018913BA
:101420003DC02E96E3E00C94571E87E0FE013896EF
:10143000DE01119601900D928A95E1F78C85882343
:1014400049F32091B30130E0C901019687709927D3
:101450004091B2014817190699F097E0929FD00188
:10146000939FB00D1124AC54BE4FFE0131960190F4
:101470000D929A95E1F78093B3010E94B507CACF08
:101480000E9407061092B3011092B20187E0ECEEC1
:10149000F1E0DF011D928A95E9F7BCCF819FC00181
:1014A00011248C549E4F0E946208882309F4B9CFFE
:1014B000E091B2011E9FF0011124EC54FE4F2081F7
:1014C0003181428153816481758186810E943E060B
:1014D0008091B20190E00196877099278093B201C4
:1014E0009ACF682F80910001909101010E944816C7
:1014F0000895682F80910001909101010E944B1680
:10150000089580910001909101010E944E16089566
:101510008091FB0186958695869508958091FB01C3
:10152000877008959091FB01977081E009F480E045
:10153000089580910702089590910702892B809366
:1015400007020895809590910702982390930702CF
:10155000089510920702089590910602892B8093B6
:1015600006020895809590910602982390930602B2
:10157000089510920602089508950E94BC0A0895E5
:101580009091FC01292F282331F0809589238093A5
:10159000FC010E94BD0A089508950E94CC0A089596
:1015A0009091FD01292F2823281729F0982B90933B
:1015B000FD010E94CD0A08959091FD01292F282355
:1015C00031F0809589238093FD010E94CD0A089512
:1015D0008091FD01882329F01092FD0180E00E9496
:1015E000CD0A0895CF93DF93E0910001F0910101BE
:1015F000809107028083E0910001F09101018081D8
:1016000090910602892B80839091FD01992381F0AE
:10161000E0910001F09101018081892B808380910C
:101620000001909101010E94001681110E94E80AB8
:10163000C0910001D091010148E050E063EF71E0FA
:10164000CE010E94771E892B59F088E0FE01A3EF9E
:10165000B1E001900D928A95E1F7CE010E949D15AF
:10166000DF91CF91089508950E94330B08959091D2
:10167000440292FF11C098E0899F90011124622BCF
:101680006093FB010E9490068091FB0186958695F0
:1016900086950E94340B08950E949006089510923A
:1016A000FB0180E00E94340B08959091FB0180952E
:1016B00089238093FB01282F277069F4891759F03B
:1016C0009091440292FF07C08695869586950E9468
:1016D000A0060E944F0B08959091440292FB22278E
:1016E00020F9281769F080FB92F9909344028091C9
:1016F0004302909144020E94B40B82E00E94550B79
:1017000008958091440282FB882780F991E089271F
:101710000E946C0B089581E00E946C0B089580E09C
:101720000E946C0B08956FEF7FEF90E080E00E94C5
:10173000C91E089590E080E00E94951E21E0863E3B
:101740009E4F09F020E0822F089582E090E00E94F1
:101750008D1E089583E090E00E948D1E089584E020
:1017600090E00E94951E0895BC0184E090E00E94E4
:10177000C91E0895AB01BC018FE090E00E94BD1E20
:101780000895AB01BC0183E190E00E94BD1E089565
:1017900060E070E0CB010E94C10B089560E070E052
:1017A000CB010E94BA0B0E94C80B0895A8E0B0E0DC
:1017B000ECEDFBE00C943C1E66EE7EEF90E080E0EA
:1017C0000E94C91E60E082E090E00E94AB1E60E0D3
:1017D00083E090E00E94AB1E1092B1011092B00124
:1017E00060E074E184E090E00E94C91E60E086E061
:1017F00090E00E94AB1E6FEF87E090E00E94AB1E6E
:1018000040E050E0BA0188E090E00E94BD1E60E038
:1018100084E290E00E94AB1E60E087E190E00E94CD
:10182000AB1E60E08CE090E00E94AB1E60E08DE0BB
:1018300090E00E94AB1E19821A821B821C821D82BC
:101840001E821F82188648E050E068E170E0CE01F9
:1018500001960E949B1E40E050E0BA0180E290E0B9
:101860000E94BD1E0E94CE0B2896E2E00C94581EEA
:101870000E94D60B0895682F8EE090E00E94AB1E68
:101880000895A6E0B0E0E7E4FCE00C943A1E0E9464
:1018900027178C0180910802909109028017910707
:1018A00081F019821A820E942717682F49815A8174
:1018B000792F80E090E00E94CF02109309020093FC
:1018C00008022696E4E00C94561E0E94331760939B
:1018D00018027093190280931A0290931B0260936E
:1018E00014027093150280931602909317020895C4
:1018F000089508950E94780C089508950E947D0C23
:10190000089583E39FE00E948F100E94790C0E944B
:101910007A0C089581E008950E948A0C08950E942F
:101920008A0C0895089508950E94920C0E94930CC9
:1019300008950E94520F0E94A30208950E941E174C
:101940000E94E50F0E94990C0E947E0C0895A6E06B
:10195000B0E0EDEAFCE00C94331E0E948C0C811187
:101960000AC00E94410C0E942A120E94B6022696CA
:10197000EBE00C944F1E0E94FB0F8AE0C82E82E021
:10198000D82E760110E0F70101917F01812F0E948E
:10199000780F1F5F1A3009F440C00817A1F3809137
:1019A0001C0281FD0E947E0F0E948F0CA82E10E069
:1019B00099249394812F0E94780F082FF60181912A
:1019C0006F01081721F1E02EE826B12CFF24F394D3
:1019D0008E2D8F21A9F0AA2099F0B9821A830E9436
:1019E00027179C838B839D8291E0802F8F2109F4A0
:1019F00090E049815A816B817C818D810E94CF0268
:101A0000FF0CF1E0BF120CC0F601319700831F5F9D
:101A10001A3081F60E94650CA6CF0813C0CFA1CF63
:101A2000BB24B394D5CF1F93CF93DF930E94420E74
:101A3000EC01C11580E5D807F0F5C11580E4D807A1
:101A400008F09CC0C03ED10520F5CD3CD10508F082
:101A500082C0C83AD10578F4C53AD10508F073C000
:101A6000C130D10519F1209709F1C430D105F0F446
:101A7000D0E0C0E01BC0C33CD105D0F7C85AD0E0CD
:101A8000CC0FDD1FC45BDE4F0990D881C02DD4641C
:101A90000DC0C11580E2D80708F0D1C0C11581E0A2
:101AA000D80708F05AC0C83ED10510F7CE01DF9123
:101AB000CF911F910895C03682E5D80718F5C0343C
:101AC00082E5D80708F06BC0C03282E5D80708F07D
:101AD0005FC0C11582E5D80708F497C02C2F269562
:101AE000269580E2289F900111248C2F8370C1E0FD
:101AF000D0E002C0CC0FDD1F8A95E2F7C22BD32BBA
:101B0000DD68D4CFC03A82E5D80760F4C03882E5FA
:101B1000D80708F459C0CF71D0E0DC2FCC27C46FB0
:101B2000D06AC4CFC03C82E5D80708F462C0C03E8A
:101B300082E5D80708F09CCFDC2FCC27CC27DF71BB
:101B4000C06FD06AB3CFC55AD0E0CE57DE4FC88140
:101B5000D0E0D064ABCFD065A9CF8D2F0E94E40E2A
:101B6000182FCE0199270E94420EC12FD0E0DC2F02
:101B7000CC27CC27DF71C82BD92B98CFCE01992742
:101B80000E94420ECC27DF70C82BD92BD06A8ECF93
:101B9000CF71D0E0DC2FCC27C16FD06A87CF2C2F3C
:101BA00026952695277080E2289F900111248C2F7E
:101BB0008370C1E0D0E002C0CC0FDD1F8A95E2F750
:101BC000C22BD32BDC6872CF2C2F2695269527703D
:101BD00080E2289F900111248C2F8370C1E0D0E017
:101BE00002C0CC0FDD1F8A95E2F7C22BD32BDA6837
:101BF0005DCF8C2F8F710E94E40EC82FD0E0DC2FB8
:101C0000CC27CC27DF71D06251CF8C2F8F710E94EF
:101C1000E40E55E0D695C7955A95E1F7CF70D0E020
:101C2000DC2FCC27282F30E084FF05C044E0220FB2
:101C3000331F4A95E1F7C22BD32BD06937CF8D2FB5
:101C40008F710E94E40E182FCE0199270E94420E38
:101C5000C12FD0E0DC2FCC27CC27DF71C82BD92BAC
:101C6000D2CF462F7A3030F4623020F4672F0E94B2
:101C7000B501089590E080E008950E94310E0E9421
:101C8000130D089582389105B9F1B0F481339105AF
:101C900009F47DC048F48932910509F46DC08A3297
:101CA000910509F47BC008958533910509F45FC05F
:101CB0008933910509F10895833E9105D9F138F4EE
:101CC000803E910529F1823E910579F10895863E85
:101CD0009105D9F1873E910509F43EC0843E9105F6
:101CE00041F52091440221FF24C08091430284FDEC
:101CF00019C087EE90E0089520914302237009F007
:101D00005AC02091440223FF14C089E290E0089554
:101D10002091430220FD38C03091440230FF09C0B9
:101D200024FF43C090E080E008952091430222FD0B
:101D3000F7CF08952091430222FD3AC0309144022A
:101D400030FD39C024FFF5CFEDCF2091430223FFB2
:101D5000F0CF24FDE7CFCDCF2091430223FD2EC04D
:101D60003091440231FFEECF84EE90E0089520914F
:101D7000430225FFDECFC9CF2091430225FD21C0BC
:101D80002091440223FFD5CF89E390E0D2CF209168
:101D9000430226FFCECF8AE290E0089520914302CD
:101DA00026FFC7CF81E390E0089583EE90E0089589
:101DB00082EE90E0089580EE90E0089586EE90E047
:101DC000089585E390E008959091430292FF10C03A
:101DD00041E0282F2471243009F040E031E0282F21
:101DE0002871283009F030E0431711F02CE08227E9
:101DF00093FF10C041E0282F2471243109F040E006
:101E000031E0282F2871283109F030E0431711F014
:101E10002CE082273091440230FF10C051E0282F7F
:101E20002171213009F050E041E0282F287128303D
:101E300009F040E0541711F029E0822731FF10C06B
:101E400041E0282F2171213109F040E031E0282FB5
:101E50002871283109F030E0431711F029E082277A
:101E600094FD877E089580E008950E94930B089565
:101E70000E94FB0F2FEF86E791E0215080409040B9
:101E8000E1F700C000000E94FB0F80E00E94780F85
:101E900080FF04C00E94350F0E94721708950E94AF
:101EA000380F08950E949A0B811102C00E94380CCD
:101EB0000E94A50B80931C020E94AF0B90934402DA
:101EC000809343020E944F0F0E94AA0B90E00E9451
:101ED00054068091AE019091AF010E94750608955D
:101EE00008950E94700F089508950E94740F089538
:101EF000E82FF0E0E15BFD4F8081089508951F9386
:101F0000CF93DF9325E831E0C1E0D0E0D90150E084
:101F100040E002C041E050E08D918F3F91F0E82F0A
:101F2000E295EF70F0E011A18F70BE0101C0660F65
:101F30008A95EAF7962F9095912391A382A1862BFB
:101F400082A34130510531F72E5F3F4F81E029399F
:101F50003807E1F6DF91CF911F910895FC0170E001
:101F6000AB01440F551FDA01AB57BE4F8C9120E0F7
:101F70008F3F79F0A82FA295AF70B0E090962C918A
:101F800030E08F7002C0359527958A95E2F720954D
:101F900021704B575E4FDA0111969C919F3F79F06B
:101FA000A92FA295AF70B0E090964C9150E09F7031
:101FB00002C0559547959A95E2F792E040FD90E072
:101FC000E60FF71F292B208308950E947F0F8AE0D8
:101FD000EFE4F2E0DF01982F1D929A95E9F7E5E42E
:101FE000F2E0DF011D928A95E9F78AE00E9436103F
:101FF0000E94710F0895AAE0B0E0E1E0F0E10C94D6
:10200000391E8E010F5F1F4F8AE0F80111928A95E9
:10201000E9F7F12C6F2DC8010E94AE0FF394FAE09E
:10202000FF12F8CF4AE050E0B80185E492E00E9448
:10203000771E21E0009709F420E0892B41F08AE027
:10204000F801A5E4B2E001900D928A95E1F74AE02B
:102050006FE472E085E492E00E943710182F0E942E
:10206000750F812F2A96E5E00C94551E0895CF92A6
:10207000DF92EF92FF920F931F93CF936C017B013E
:10208000042F222349F081E080931F020E9427172A
:1020900090931E0280931D02C0911F02C1110AC0BD
:1020A000C0E08C2FCF911F910F91FF90EF90DF90A8
:1020B000CF90089580911D0290911E020E943F17BB
:1020C000059770F310E0A801B601C7010E94771EC2
:1020D000892B41F0A801B601C7010E94841E10920D
:1020E0001F02DFCFC0E0FBCF0E94E8180E949E0CC9
:1020F0000E94F51808950E94FA180E94A70C0E94E9
:10210000141908950E94C0160E94CE180E94810CD6
:102110000E9474100E947B100E94940CFBCF90933D
:102120009B0180939A010895282F35EB2303C0016A
:10213000112497FF04C080589109892F0895805871
:102140009F4FFBCF8091260280FF0DC06091070159
:1021500070E0660F771F6038710570F561157105C5
:1021600069F1862F089581FF07C06091070184E01F
:10217000689FB0011124EFCF6091070182FD0AC072
:10218000809125028823A9F0209106016091070122
:10219000821710F088E0ECCF869FC001112433E055
:1021A000880F991F3A95E1F7622F70E00E94121E86
:1021B000D2CF68E070E0D5CF8FE7089581E0089531
:1021C0008091260280FF0CC06091030170E075953C
:1021D0006795759567956115710549F1862F089585
:1021E00081FF06C06091030170E075956795F3CF9C
:1021F0006091030182FD0BC0909124029923A1F00C
:102200006091020180910301961738F0682F70E009
:102210006038710500F38FE70895899FC00111248C
:1022200070E00E94121EF4CF61E070E0D7CF81E031
:1022300008958D3C31F40E94A210819580932A026A
:1022400008958E3C19F40E94A210F8CF8F3C31F40F
:102250000E94A2108195809329020895803D19F46F
:102260000E94A210F8CF893D29F40E94E0108093CB
:102270002B0208958A3D21F40E94E0108195F7CF4A
:102280008B3D31F40E94E010819580932C020895DB
:102290008C3D19F40E94E010F8CF9FE2980F98301F
:1022A00070F4815D990B21E030E001C0220F8A9526
:1022B000EAF780912802822B8093280208958D3DB1
:1022C00031F48091260281608093260208958E3D2C
:1022D00021F4809126028260F7CF8F3DB9F780917B
:1022E00026028460F1CF409129028D3C59F48091FF
:1022F0002A0287FF0DC010922A0241110BC01092D2
:10230000250208C08E3C81F480912A0218169CF3A5
:10231000442381F080912B0290912C02892B09F0AB
:102320005AC01092240208958F3C49F447FFF0CF21
:102330001092290280912A028111ECCFE0CF803DDA
:1023400019F41416ACF3E4CF90912B02893D29F4D3
:102350001916F4F610922B02DBCF8A3D19F497FF81
:10236000D7CFF8CF90912C028B3D29F497FFD0CF97
:1023700010922C02CDCF8C3D19F41916CCF3C8CF96
:102380009FE2980F983090F4815D990B21E030E046
:10239000B90102C0660F771F8A95E2F7CB018095DD
:1023A00090912802892380932802B2CF8D3D31F489
:1023B000809126028E7F80932602AACF8E3D21F443
:1023C000809126028D7FF7CF8F3D09F0A1CF8091BC
:1023D00026028B7FF0CF08950E9427179C019091D1
:1023E000290280912A02982B21F030932302209316
:1023F000220290912B0280912C02982B21F0309395
:1024000021022093200287E292E00E94A8150895FD
:1024100086E0E7E2F2E0DF011D928A95E9F710928B
:10242000250210922402109226020895FC01828156
:1024300081110EC0838181110BC08481811108C07C
:1024400091E08581811101C090E0892F817008950C
:1024500081E0FCCFA6E0B0E0E0E3F2E10C943B1EAB
:1024600086E0E7E2F2E0DE01119601900D928A9596
:10247000E1F71092290210922A0210922B02109278
:102480002C028B819C81892B89F080912202909172
:1024900023020E943F17AC01909125029923C9F1B4
:1024A000809108018417150608F440C08D819E8133
:1024B000892B91F080912002909121020E943F1778
:1024C000AC0190912402992309F46AC0809104011F
:1024D0008417150608F472C0BE016F5F7F4F87E254
:1024E00092E00E945516811105C087E292E00E9499
:1024F000161281110E94EC1186E0FE013196A7E2CE
:10250000B2E001900D928A95E1F72696E3E00C94F3
:10251000571E209109018AE0289F90011124241759
:10252000350720F69F5F9093250202C09F3FD1F7A9
:102530001B81112359F00E94A2109FEF11160CF479
:1025400091E0899F802D1124809329021C81112301
:1025500059F00E94A2109FEF11160CF491E0899F90
:10256000802D112480932A0280912902882309F466
:102570009DCF10912A02112309F498CF0E94941044
:10258000882351F080932902812F0E949410882380
:1025900029F080932A028ACF81E0F4CF81E0F9CF3D
:1025A000209105018AE0289F900111242417350706
:1025B00008F092CF9F5F9093240202C09F3FD1F713
:1025C0001D81112359F00E94E0109FEF11160CF4A9
:1025D00091E0899F802D112480932B021E8111236D
:1025E00059F00E94E0109FEF11160CF491E0899FC2
:1025F000802D112480932C0280912B02882309F4D2
:102600006BCF10912C02112309F466CF0E94941015
:10261000882351F080932B02812F0E9494108823ED
:1026200029F080932C0258CF81E0F4CF81E0F9CFDC
:10263000CF93DF93EC01FB018581882309F4D2C09D
:102640009E0130572332310508F0B2C00E94AF0B13
:102650009093440280934302FE01E150F047E2323E
:10266000F10520F4E351F14E0C94261E80914302B3
:1026700081608093430293C080914402886080937C
:1026800044028DC0809143028260F3CF8091430267
:102690008460EFCF809143028860EBCF8091440249
:1026A0008160EDCF809144028260E9CF8091430246
:1026B0008061DFCF809143028062DBCF8091430253
:1026C0008064D7CF0E940706809143028068D1CFF3
:1026D000809143028C60CDCF809144028360CFCF44
:1026E000809143028E7FC5CF80914402877FC7CF00
:1026F000809143028D7FBDCF809143028B7FB9CF04
:1027000080914302877FB5CF809144028E7FB7CFFF
:10271000809144028D7FB3CF809143028F7EA9CFF9
:10272000809143028F7DA5CF809143028F7BA1CF03
:102730000E940706809143028F779BCF80914302CE
:10274000837F97CF809144028C7F99CF8091430201
:1027500082FB992790F921E0922790FB82F990FB68
:1027600083F987CF80914402982F909591708E7F46
:10277000892B90FB81F983CF90914302892F8F7B26
:1027800096FF806476CF0E94070690914302892FBE
:1027900097FB87F980586DCF81E00E943B0C8091B8
:1027A0004302909144020E94B40B0E94070680E00D
:1027B000DF91CF91089580E0F0CF90914302892F6F
:1027C0008F7E94FF806155CF90914302892F8E7F39
:1027D00090FF81604ECF90914402892F877F93FFB5
:1027E00088604DCF81E0E4CFB0E0A0E0EAEFF3E114
:1027F0000C94371EE82FF0E0E452FF4FD490282FBE
:1028000026952695269530E0F901E458FE4F04916F
:10281000877010E0082E02C0159507950A94E2F71C
:1028200001701127F901E459FE4FE490F12C082EB4
:1028300002C0F594E7940A94E2F791E0E922FF24BC
:10284000F901E45AFE4FC491D0E002C0D595C79576
:102850008A95E2F7C170DD270115110519F081EEA7
:102860000E941203E114F10419F086EE0E94120393
:102870008D2D0E94AA03E114F10419F086EE0E9446
:102880005F030115110519F081EE0E945F03CD2B46
:1028900019F08CE20E94AA03CDB7DEB7E7E00C94F2
:1028A000531EEF92FF920F931F93CF93DF938C01F0
:1028B000F62E8AE0E82EF8018491882309F454C0AA
:1028C000813009F04DC0E8012196FE0184918130EC
:1028D00091F42196FE0184910E94AA038E010F5F5C
:1028E0001F4F8F2D815038F3EFE9FFE03197F1F75B
:1028F00000C00000F7CF823039F4E8012296FE01D3
:1029000084910E941203EACF833039F4E8012296C1
:10291000FE0184910E945F03E1CF8430F9F6E80163
:102920002296FE01249190E080E0FE013196205332
:10293000330B2A30310548F0019780F2EFE9FFE0D0
:102940003197F1F700C00000F7CFE89EA001E99EA3
:10295000500D1124C901840F951F2491EF01E5CF7B
:102960000E94F413E801BACFCDB7DEB7E6E00C94CD
:10297000541ECF93DF93EB0186319C4711F50E94E3
:10298000990A9D81992399F08A7A91E009F490E05F
:1029900090932D02811109C089E20E94710A0E9460
:1029A000F20A80E0DF91CF91089585E3F6CF809120
:1029B0002D02811104C089E20E94790AF0CF85E3DB
:1029C000FBCF81E0EFCF0F931F93CF93DF93C42F03
:1029D000D22FFC0185818823C9F0409330020E94E8
:1029E000271790932F0280932E0280E28C0F88305D
:1029F00040F4C77081E001C0880FCA95EAF70E94D1
:102A0000B303DF91CF911F910F9108951091300280
:102A1000141332C080912E0290912F020E943F1712
:102A2000883C910548F5C0E2CD0F1D17B9F080E252
:102A3000810F883040F4177081E001C0880F1A952B
:102A4000EAF70E94BA03C83048F481E09D2F9770DE
:102A500001C0880F9A95EAF70E94B303802F0E9465
:102A6000AA03C83070F6D77081E001C0880FDA95EC
:102A7000EAF70E94BA03C5CF80E28C0F883008F6CF
:102A8000C77081E001C0880FCA95EAF7F2CF0F93B3
:102A9000DB0188519C4787309105A0F5FC01E15F7F
:102AA000F04E0C94261E06E221EE41EE6AE17CE730
:102AB000CD010E94E31480E00F91089507E225EE16
:102AC00045EE6BE17CE7F4CF06E221EE40EE68E1F3
:102AD0007CE7EECF07E225EE44EE69E17CE7E8CF44
:102AE00006E221EE42EE6CE17CE7E2CF07E225EE62
:102AF00046EE6DE17CE7DCCF08E221E045EE6EE1D9
:102B00007CE7D6CF15968C91882319F0109230026D
:102B1000D3CF81E0D1CF90933602809335020895D0
:102B2000E0913502F0913602309729F00190F08162
:102B3000E02D0995089580E00895E0913502F09127
:102B40003602309721F00280F381E02D0995089537
:102B5000E0913502F0913602309739F022E0DC0145
:102B60002C930480F581E02D09950895A3E0B0E051
:102B7000ECEBF5E10C943C1E2091330230913402D1
:102B800028173907A1F09093340280933302E09123
:102B90003502F0913602309751F023E029839B8370
:102BA0008A830680F781E02DCE0101960995239650
:102BB000E2E00C94581EA3E0B0E0E1EEF5E10C94E5
:102BC0003C1E209131023091320228173907A1F0C2
:102BD0009093320280933102E0913502F0913602F7
:102BE000309751F024E029839B838A830680F78104
:102BF000E02DCE01019609952396E2E00C94581E33
:102C00009C012E5F3F4FAC01485F5F4F80E024176F
:102C1000350709F40895F90191919F019923B9F3BA
:102C20008F5FF5CF662349F0FC013296089621911B
:102C3000261729F0E817F907D1F780E0089581E019
:102C400008959C01FC0132969FEF80E04191461768
:102C500051F09F3F19F4411101C0982F8F5F8630CA
:102C6000A9F79F3F09F40895290F311D97FD3A9563
:102C7000F90162830895FC0132960896219126138A
:102C800003C0DF0111971C92E817F907B9F70895FF
:102C90000E94211608950E943B160895029626E090
:102CA000FC0111922A95E9F70895DC01FB011196C8
:102CB0009C9111978181981322C012968C91129742
:102CC000882319F0928189131AC013968C91139757
:102CD000882319F09381891312C015968C9115974A
:102CE000882319F0958189130AC014969C91992321
:102CF00021F081E02481291303C080E001C081E03C
:102D00008170089508950E9482160895811106C069
:102D100081E0809337020E948316089582E0F9CF04
:102D200083E0809337020E94831608950E948616DE
:102D3000089581E0809337020E94831608950E94CF
:102D400099160895089508950E94A3160895089568
:102D500008950E94A2160895CF930E94A7160E947C
:102D6000FB0F0E94A816C0E08C2F0E94780F8111E3
:102D700005C0CF5FCA30C1F7CF91089581E0FCCF85
:102D800085B7806885BF85B7806885BF08951F9225
:102D90001FB61F9211248F939F93AF93BF9380917F
:102DA0003802811113C08091590290915A02A0916A
:102DB0005B02B0915C024196A11DB11D8093590246
:102DC00090935A02A0935B02B0935C02BF91AF91C3
:102DD0009F918F911F901FBE1F9018958091610247
:102DE000843031F10E9486021092380288E190E02E
:102DF00020E40FB6F894A895809360000FBE20934E
:102E0000600083B7817F846083BF83B7816083BFA5
:102E10007894889583B78E7F83BF0FB6F894A89572
:102E200080916000886180936000109260000FBE06
:102E300008950E9407060E948B02089582E084BDD7
:102E400093E095BD9AEF97BD80936E0008952FB7DC
:102E5000F8948091590290915A02A0915B02B0912E
:102E60005C022FBF08952FB7F894609159027091BA
:102E70005A0280915B0290915C022FBF08959C01E1
:102E80004FB7F8948091590290915A02A0915B0239
:102E9000B0915C024FBF821B930B089578941F92F0
:102EA0001FB61F9211248F939F93AF93BF9380916E
:102EB000590290915A02A0915B02B0915C02019676
:102EC000A11DB11D8093590290935A02A0935B02F9
:102ED000B0935C02BF91AF919F918F911F901FBEE5
:102EE0001F90189587E797E7909301088093000853
:102EF00088E19AE00FB6F894A895809360000FBE21
:102F000090936000FFCF88E19AE00FB6F894A895FF
:102F1000809360000FBE90936000FFCF80914102CC
:102F200008959B01BA01909161029430E9F48F7089
:102F30008093E9009FEF8091E800915085FD06C0E5
:102F400085ED8A95F1F700009111F5CF8091E800A9
:102F500085FF0AC050E040E0C9010E948B198091B2
:102F6000E8008E778093E800089543E050E0BC01CC
:102F700082E00E949117089546E050E0BC0182E093
:102F80000E9491170895CF93DF93EC0148E050E041
:102F9000BC0181E00E94911788E0FE01A9E3B2E044
:102FA00001900D928A95E1F7DF91CF91089580917C
:102FB0006002811109C00E941B1B0E94781B809136
:102FC000E20084608093E200089510926002089508
:102FD0000E949916089560915D0281E0611101C01F
:102FE00080E00E94901608959091610281E09430F3
:102FF00009F080E060915D020E949616089542E01B
:1030000061EC81E00E94971A42E261EC82E00E944A
:10301000971A9091610281E0943009F080E060910C
:103020005D020E948616089580916302833009F440
:1030300061C030F48130D1F1823009F49EC008952E
:103040008A3009F48AC08B3009F46FC0893009F0E6
:1030500050C080916202813209F04BC080916602BB
:1030600090916702029708F044C08091E800877F42
:103070008093E8008091E80082FF37C09091F300D0
:103080008091F200029731F48091F100813011F0CB
:10309000863021F48091F100809341028091E80014
:1030A0008B778093E8000E94CB1A23C08091620244
:1030B000813AF9F48091E800877F8093E80080915D
:1030C000660290916702892B61F468E089E392E0DF
:1030D00070E00E94DA198091E8008B778093E80015
:1030E000089560E090E080E0F3CF8091610281116B
:1030F000C1CF089580916202813AD9F7809166022A
:1031000090916702892BA9F78091E800877F8093CF
:10311000E8008091E80080FFFCCF8091120180934D
:10312000F1008091E8008E77BCCF809162028132FD
:1031300001F78091660290916702892BD1F6809108
:10314000E800877F8093E8000E94CB1A8091640298
:10315000809312010E9407060895809162028132D5
:1031600041F68091E800877F8093E8000E94CB1AA7
:103170008091650280934202089580916202813AB3
:1031800009F0B7CF8091E800877F8093E8008091B5
:10319000E80080FFFCCF80914202C1CF84B7877FD7
:1031A00084BF0FB6F894A8958091600088618093E1
:1031B0006000109260000FBE80E890E00FB6F894B7
:1031C00080936100909361000FBE0E949F16089546
:1031D0000E941B1B0E94781BE2EEF0E0808184605D
:1031E000808378940E94F71D08958AE091E00E9400
:1031F0008B15089580916102853031F480916102D0
:10320000853019F00E94191708950E94EE168091DA
:103210005F02882399F30E94AC16882379F30E94F9
:1032200075190E940706EACF08959A014091680235
:10323000509169020E941D190895492F5527433066
:10324000510519F168F44130510509F444C0423088
:10325000510509F445C090E080E050E040E025C011
:103260004132510549F142325105A9F784E490E019
:103270004AE952E061157105C1F08BE790E04FE13A
:1032800052E06130710589F0E6CF992781309105D0
:1032900081F0009729F00297F1F6ECE8F1E002C026
:1032A000EEECF1E0849190E0AF01F90151834083AD
:1032B0000895E6EBF1E0F6CF89E090E044EE51E0CE
:1032C0006115710591F389E090E04DEF51E06130B7
:1032D000710559F3C0CF82E190E04DE052E0E5CFB7
:1032E0008BE390E042ED51E0E0CF80E189BD82E1E7
:1032F00089BD09B400FEFDCF8091D8008F7D8093F9
:10330000D8008091E00082608093E0008091E0002E
:1033100081FDFCCF0895AF92BF92CF92DF92FF92D2
:103320000F931F93CF93DF936C01EB018A010E94EF
:10333000EA1AF82E811123C00115110539F0F801A0
:1033400080819181C81BD90BC80ED91EB12CA12C2C
:103350002097A9F08091E80085FD22C08091E800C7
:103360008E778093E80001151105A1F0F8018081A6
:103370009181A80EB91EB182A08285E0F82E8F2D12
:10338000DF91CF911F910F91FF90DF90CF90BF9071
:10339000AF9008950E94EA1A8823D1F2F82EEFCF59
:1033A000F60181916F018093F1002197FFEFAF1A31
:1033B000BF0ACECFFC018091680290916902861706
:1033C0009707A0F06115710529F49091E8009E77A8
:1033D0009093E80090E06115710551F4911108C0D7
:1033E0008091E80082FF34C080E00895BC01F2CFF4
:1033F000809161028823C1F18530C1F18091E8009C
:1034000083FD30C08091E80082FDEACF8091E80022
:1034100080FFE1CF8091F3002091F200382F6115F9
:10342000710519F02830310558F091E02830310548
:1034300009F090E02091E8002E772093E800CBCFB0
:1034400081918093F100615071092F5F3F4FE7CF69
:1034500080916102882341F0853041F08091E8003D
:1034600083FFBECF81E0089582E0089583E0089550
:10347000FC01809168029091690286179707A0F07D
:103480006115710529F48091E8008E778093E8003A
:1034900090E06115710551F4911108C08091E80028
:1034A00082FF35C080E00895BC01F2CF80916102B7
:1034B0008823C9F18530C9F18091E80083FD31C0CE
:1034C0008091E80082FDEACF8091E80080FFE1CFA3
:1034D0008091F3002091F200382F6115710519F0E9
:1034E0002830310558F091E02830310509F090E09E
:1034F0008091E8008E778093E800CBCF8491809311
:10350000F1003196615071092F5F3F4FE6CF8091F6
:103510006102882341F0853041F08091E80083FF0B
:10352000BDCF81E0089582E0089583E00895982F4B
:10353000973028F08F708093E90081E00895909390
:10354000E900242F762F50E0981731F07091EC00AD
:103550002091ED005091F00021FD02C09F5FE8CF67
:103560003091EB003E7F3093EB003091ED003D7FDA
:103570003093ED003091EB0031603093EB007093AD
:10358000EC002093ED005093F0002091EE0027FD19
:10359000E5CF80E008958091620287FF13C080919B
:1035A000E80082FF06C08091E8008B778093E800F6
:1035B00004C0809161028111F2CF0895809161026F
:1035C0008823D9F38091E80080FFF8CF8091E8004C
:1035D0008E77ECCF2091E4003091E50095E6A901CB
:1035E0002091EC00822F817020FF06C08091E800BE
:1035F00080FF06C080E008952091E80022FD1AC0F7
:1036000080916102882389F0853089F08091EB00F8
:1036100085FD0FC02091E4003091E500421753076B
:10362000F9F29150E1F684E0089582E0089583E094
:10363000089581E008950E948A1B0E94921BE0EE8B
:10364000F0E0808181608083E8EDF0E080818F7719
:10365000808319BCA7EDB0E08C918E7F8C93808124
:103660008F7E80831092600208950F931F93CF93F3
:10367000DF930E948A1B0E94921BC8EDD0E08881D4
:103680008F77888388818068888388818F7D88830D
:1036900019BC1092610210925D0210925F021092AA
:1036A0005E0200EE10E0F80180818B7F80838881CC
:1036B0008160888342E060E080E00E94971AE1EE3A
:1036C000F0E080818E7F8083E2EEF0E08081816097
:1036D0008083808188608083F80180818E7F8083F1
:1036E000888180618883DF91CF911F910F91089528
:1036F000E8EDF0E080818F7E8083E7EDF0E080816F
:103700008160808384E082BF81E0809360020E94B8
:10371000351B0895E8EDF0E080818E7F8083109264
:10372000E20008951092DA001092E10008951F92CD
:103730000F920FB60F9211242F933F934F935F93E5
:103740006F937F938F939F93AF93BF93EF93FF9369
:103750008091E10082FF0BC08091E20082FF07C0F0
:103760008091E1008B7F8093E1000E94F61D8091A3
:10377000DA0080FF19C08091D80080FF15C08091C9
:10378000DA008E7F8093DA008091D90080FF96C0A6
:1037900080E189BD82E189BD09B400FEFDCF81E0F1
:1037A000809361020E94D7178091E10080FF19C0C9
:1037B0008091E20080FF15C08091E2008E7F8093AF
:1037C000E2008091E20080618093E2008091D80065
:1037D00080628093D80019BC85E0809361020E94CA
:1037E000EB178091E10084FF2BC08091E20084FF01
:1037F00027C080E189BD82E189BD89B5982F91708C
:1038000080FFFBCF8091D8008F7D8093D80080917E
:10381000E1008F7E8093E1008091E2008F7E8093B3
:10382000E2008091E20081608093E20080915D027D
:10383000882309F449C084E0809361020E94F41750
:103840008091E10083FF29C08091E20083FF25C0C1
:103850008091E100877F8093E10082E080936102A4
:1038600010925D028091E1008E7F8093E100809153
:10387000E2008E7F8093E2008091E200806180937D
:10388000E20042E060E080E00E94971A8091F00040
:1038900088608093F0000E94E817FF91EF91BF913C
:1038A000AF919F918F917F916F915F914F913F91D8
:1038B0002F910F900FBE0F901F90189519BC10926A
:1038C00061020E94E51770CF8091E30087FD93E0CD
:1038D00090936102B3CF1F920F920FB60F921124F3
:1038E0002F933F934F935F936F937F938F939F9308
:1038F000AF93BF93CF93DF93EF93FF93D091E90002
:10390000DF708091EC00C82FC17080FDC0E810927C
:10391000E9008091F000877F8093F00078940E9406
:10392000AF1C1092E9008091F00088608093F00055
:10393000CD2BCF70C093E900FF91EF91DF91CF9134
:10394000BF91AF919F918F917F916F915F914F91B7
:103950003F912F910F900FBE0F901F901895AAE2E4
:10396000B0E0E5EBFCE10C943B1E82E692E0209196
:10397000F100FC012193CF01F2E08A369F07B9F7ED
:103980000E9414188091E80083FF1EC1809162029A
:10399000909163029A3008F017C1E92FF0E0EA5ED7
:1039A000F04E0C94261E803899F0823809F00CC134
:1039B000809166028F70873008F006C18093E9001D
:1039C0008091EB0085FB882780F91092E90006C002
:1039D00080915E0290915F02911182609091E80067
:1039E000977F9093E8008093F1001092F10080910E
:1039F000E8008E77E5C0882309F4D3C0823009F04F
:103A0000E3C0809164028111D6C0809166028F70FC
:103A10002FEF280F263008F0D7C08093E9002091BF
:103A2000EB0020FFC8C0933031F48091EB0080623E
:103A30008093EB00C0C09091EB0090619093EB00FD
:103A400021E030E001C0220F8A95EAF72093EA00D6
:103A50001092EA008091EB008860EACF8111B4C037
:103A6000109164021F778091E3008078812B80930E
:103A7000E3008091E800877F8093E8000E94CB1AE2
:103A80008091E80080FFFCCF8091E3008068809304
:103A9000E30082E0111183E08093610295C08058B9
:103AA000823008F091C080916402909165028C3D53
:103AB00023E09207A1F583E08A838AE289834FB7E6
:103AC000F894DE01139620E03EE051E2E32FF0E0AF
:103AD00050935700E49120FF03C0E295EF703F5FE1
:103AE000EF708E2F90E0EA30C0F0C7968D939D93D3
:103AF0002F5F243159F74FBF8091E800877F809373
:103B0000E8006AE270E0CE0101960E94DA19809125
:103B1000E8008B778093E80057C0C096E7CF6091AC
:103B2000660270916702AE014F5F5F4F0E941519E8
:103B3000BC01892B09F448C09091E800977F9093CD
:103B4000E80089819A810E94381AE1CF8038E1F536
:103B50008091E800877F8093E80080915D028093E8
:103B6000F10045CF811130C090916402923060F530
:103B70008091E800877F8093E80090935D020E9427
:103B8000CB1A80915D02882311F084E005C08091FA
:103B9000E30087FDFACF81E0809361020E94FF1766
:103BA00013C080916402813079F481E0933009F090
:103BB00080E080935F021092E9008091E800877FA7
:103BC0008093E8000E94CB1A8091E80083FF0AC02E
:103BD0008091E800877F8093E8008091EB0080620D
:103BE0008093EB00AA96E3E00C94571E0895CF93C0
:103BF000809161028823A1F0C091E900CF7090917B
:103C0000EC00892F817090FD80E8C82B1092E900AC
:103C10008091E80083FD0E94AF1CCF70C093E90043
:103C2000CF91089597FB072E16F4009407D077FDE7
:103C300009D00E94631E07FC05D03EF49095819543
:103C40009F4F0895709561957F4F0895EE0FFF1F68
:103C50000590F491E02D09942F923F924F925F923C
:103C60006F927F928F929F92AF92BF92CF92DF928C
:103C7000EF92FF920F931F93CF93DF93CDB7DEB7F1
:103C8000CA1BDB0B0FB6F894DEBF0FBECDBF099485
:103C90002A88398848885F846E847D848C849B84DC
:103CA000AA84B984C884DF80EE80FD800C811B81EA
:103CB000AA81B981CE0FD11D0FB6F894DEBF0FBE19
:103CC000CDBFED010895AA1BBB1B51E107C0AA1F80
:103CD000BB1FA617B70710F0A61BB70B881F991FAD
:103CE0005A95A9F780959095BC01CD010895FB01E7
:103CF000DC0104C08D910190801921F441505040A5
:103D0000C8F7881B990B0895FB01DC0102C00190E4
:103D10000D9241505040D8F70895F999FECF92BDC9
:103D200081BDF89A992780B50895A8E1B0E042E0F6
:103D300050E00C94D11EDC01A40FB51F415050403F
:103D400048F0CB01840F951F2E910E94AC1E41506C
:103D50005040D0F70895262FF999FECF92BD81BD2E
:103D6000F89A019700B4021639F01FBA20BD0FB6B9
:103D7000F894FA9AF99A0FBE08950396272F0E9495
:103D8000AC1E0E94AB1E252F0E94AC1E242F0C944B
:103D9000AC1E0196272F0E94AC1E0C94AB1EDC01BA
:103DA000CB01FC01F999FECF06C0F2BDE1BDF89A46
:103DB000319600B40D9241505040B8F70895F894F0
:103DC000FFCF0004000450045004B504D1042F04B4
:103DD0002F04D6044705560556057013E4137813CF
:103DE000421346137C134A1380138C135613DD13AE
:103DF0005A1390135E139413BC1362139813C313D6
:103E000068139E13A6134E138413521388136C1356
:103E1000A213B213CC13DB133C137413EB1364150E
:103E20006A1553155E15701576157C15D31CFB1C91
:103E3000E41DFB1CE41D2E1D4F1DE41DA61DB21D1F
:103E4000FE01280850011E0A14018E17C317BC1763
:103E5000B51701E200E900EA00B500B600B700CDF1
:103E6000008301CC008A01920194012102230224E3
:103E7000022502260227022A02B300B4006F007056
:103E8000009F01CB019F02A002818283E200E90032
:103E9000EA00B500B600B700CD008301CC008A016E
:103EA0009201940121022302240225022602270204
:103EB0002A02B300B4006F0070009F01CB019F0283
:103EC000A00281828393FF92FF91F490F594F666AD
:0A3ED000F79731C63334323536005F
:00000001FF
